{
  "_format": "hh-sol-artifact-1",
  "contractName": "NFTRewards",
  "sourceName": "contracts/NFT.sol",
  "abi": [
    {
      "inputs": [],
      "stateMutability": "nonpayable",
      "type": "constructor"
    },
    {
      "inputs": [
        {
          "internalType": "address",
          "name": "sender",
          "type": "address"
        },
        {
          "internalType": "uint256",
          "name": "tokenId",
          "type": "uint256"
        },
        {
          "internalType": "address",
          "name": "owner",
          "type": "address"
        }
      ],
      "name": "ERC721IncorrectOwner",
      "type": "error"
    },
    {
      "inputs": [
        {
          "internalType": "address",
          "name": "operator",
          "type": "address"
        },
        {
          "internalType": "uint256",
          "name": "tokenId",
          "type": "uint256"
        }
      ],
      "name": "ERC721InsufficientApproval",
      "type": "error"
    },
    {
      "inputs": [
        {
          "internalType": "address",
          "name": "approver",
          "type": "address"
        }
      ],
      "name": "ERC721InvalidApprover",
      "type": "error"
    },
    {
      "inputs": [
        {
          "internalType": "address",
          "name": "operator",
          "type": "address"
        }
      ],
      "name": "ERC721InvalidOperator",
      "type": "error"
    },
    {
      "inputs": [
        {
          "internalType": "address",
          "name": "owner",
          "type": "address"
        }
      ],
      "name": "ERC721InvalidOwner",
      "type": "error"
    },
    {
      "inputs": [
        {
          "internalType": "address",
          "name": "receiver",
          "type": "address"
        }
      ],
      "name": "ERC721InvalidReceiver",
      "type": "error"
    },
    {
      "inputs": [
        {
          "internalType": "address",
          "name": "sender",
          "type": "address"
        }
      ],
      "name": "ERC721InvalidSender",
      "type": "error"
    },
    {
      "inputs": [
        {
          "internalType": "uint256",
          "name": "tokenId",
          "type": "uint256"
        }
      ],
      "name": "ERC721NonexistentToken",
      "type": "error"
    },
    {
      "inputs": [
        {
          "internalType": "address",
          "name": "owner",
          "type": "address"
        }
      ],
      "name": "OwnableInvalidOwner",
      "type": "error"
    },
    {
      "inputs": [
        {
          "internalType": "address",
          "name": "account",
          "type": "address"
        }
      ],
      "name": "OwnableUnauthorizedAccount",
      "type": "error"
    },
    {
      "anonymous": false,
      "inputs": [
        {
          "indexed": true,
          "internalType": "address",
          "name": "owner",
          "type": "address"
        },
        {
          "indexed": true,
          "internalType": "address",
          "name": "approved",
          "type": "address"
        },
        {
          "indexed": true,
          "internalType": "uint256",
          "name": "tokenId",
          "type": "uint256"
        }
      ],
      "name": "Approval",
      "type": "event"
    },
    {
      "anonymous": false,
      "inputs": [
        {
          "indexed": true,
          "internalType": "address",
          "name": "owner",
          "type": "address"
        },
        {
          "indexed": true,
          "internalType": "address",
          "name": "operator",
          "type": "address"
        },
        {
          "indexed": false,
          "internalType": "bool",
          "name": "approved",
          "type": "bool"
        }
      ],
      "name": "ApprovalForAll",
      "type": "event"
    },
    {
      "anonymous": false,
      "inputs": [
        {
          "indexed": false,
          "internalType": "uint256",
          "name": "_fromTokenId",
          "type": "uint256"
        },
        {
          "indexed": false,
          "internalType": "uint256",
          "name": "_toTokenId",
          "type": "uint256"
        }
      ],
      "name": "BatchMetadataUpdate",
      "type": "event"
    },
    {
      "anonymous": false,
      "inputs": [
        {
          "indexed": false,
          "internalType": "uint256",
          "name": "_tokenId",
          "type": "uint256"
        }
      ],
      "name": "MetadataUpdate",
      "type": "event"
    },
    {
      "anonymous": false,
      "inputs": [
        {
          "indexed": true,
          "internalType": "address",
          "name": "previousOwner",
          "type": "address"
        },
        {
          "indexed": true,
          "internalType": "address",
          "name": "newOwner",
          "type": "address"
        }
      ],
      "name": "OwnershipTransferred",
      "type": "event"
    },
    {
      "anonymous": false,
      "inputs": [
        {
          "indexed": true,
          "internalType": "address",
          "name": "from",
          "type": "address"
        },
        {
          "indexed": true,
          "internalType": "address",
          "name": "to",
          "type": "address"
        },
        {
          "indexed": true,
          "internalType": "uint256",
          "name": "tokenId",
          "type": "uint256"
        }
      ],
      "name": "Transfer",
      "type": "event"
    },
    {
      "inputs": [
        {
          "internalType": "address",
          "name": "to",
          "type": "address"
        },
        {
          "internalType": "uint256",
          "name": "tokenId",
          "type": "uint256"
        }
      ],
      "name": "approve",
      "outputs": [],
      "stateMutability": "nonpayable",
      "type": "function"
    },
    {
      "inputs": [
        {
          "internalType": "address",
          "name": "owner",
          "type": "address"
        }
      ],
      "name": "balanceOf",
      "outputs": [
        {
          "internalType": "uint256",
          "name": "",
          "type": "uint256"
        }
      ],
      "stateMutability": "view",
      "type": "function"
    },
    {
      "inputs": [
        {
          "internalType": "string",
          "name": "tokenURI",
          "type": "string"
        }
      ],
      "name": "claimReward",
      "outputs": [],
      "stateMutability": "nonpayable",
      "type": "function"
    },
    {
      "inputs": [
        {
          "internalType": "uint256",
          "name": "tokenId",
          "type": "uint256"
        }
      ],
      "name": "getApproved",
      "outputs": [
        {
          "internalType": "address",
          "name": "",
          "type": "address"
        }
      ],
      "stateMutability": "view",
      "type": "function"
    },
    {
      "inputs": [
        {
          "internalType": "address",
          "name": "owner",
          "type": "address"
        },
        {
          "internalType": "address",
          "name": "operator",
          "type": "address"
        }
      ],
      "name": "isApprovedForAll",
      "outputs": [
        {
          "internalType": "bool",
          "name": "",
          "type": "bool"
        }
      ],
      "stateMutability": "view",
      "type": "function"
    },
    {
      "inputs": [
        {
          "internalType": "address",
          "name": "to",
          "type": "address"
        },
        {
          "internalType": "string",
          "name": "tokenURI",
          "type": "string"
        }
      ],
      "name": "mint",
      "outputs": [],
      "stateMutability": "nonpayable",
      "type": "function"
    },
    {
      "inputs": [],
      "name": "name",
      "outputs": [
        {
          "internalType": "string",
          "name": "",
          "type": "string"
        }
      ],
      "stateMutability": "view",
      "type": "function"
    },
    {
      "inputs": [],
      "name": "nextTokenId",
      "outputs": [
        {
          "internalType": "uint256",
          "name": "",
          "type": "uint256"
        }
      ],
      "stateMutability": "view",
      "type": "function"
    },
    {
      "inputs": [],
      "name": "owner",
      "outputs": [
        {
          "internalType": "address",
          "name": "",
          "type": "address"
        }
      ],
      "stateMutability": "view",
      "type": "function"
    },
    {
      "inputs": [
        {
          "internalType": "uint256",
          "name": "tokenId",
          "type": "uint256"
        }
      ],
      "name": "ownerOf",
      "outputs": [
        {
          "internalType": "address",
          "name": "",
          "type": "address"
        }
      ],
      "stateMutability": "view",
      "type": "function"
    },
    {
      "inputs": [],
      "name": "renounceOwnership",
      "outputs": [],
      "stateMutability": "nonpayable",
      "type": "function"
    },
    {
      "inputs": [
        {
          "internalType": "address",
          "name": "user",
          "type": "address"
        }
      ],
      "name": "rewardUser",
      "outputs": [],
      "stateMutability": "nonpayable",
      "type": "function"
    },
    {
      "inputs": [
        {
          "internalType": "address",
          "name": "",
          "type": "address"
        }
      ],
      "name": "rewards",
      "outputs": [
        {
          "internalType": "uint256",
          "name": "",
          "type": "uint256"
        }
      ],
      "stateMutability": "view",
      "type": "function"
    },
    {
      "inputs": [
        {
          "internalType": "address",
          "name": "from",
          "type": "address"
        },
        {
          "internalType": "address",
          "name": "to",
          "type": "address"
        },
        {
          "internalType": "uint256",
          "name": "tokenId",
          "type": "uint256"
        }
      ],
      "name": "safeTransferFrom",
      "outputs": [],
      "stateMutability": "nonpayable",
      "type": "function"
    },
    {
      "inputs": [
        {
          "internalType": "address",
          "name": "from",
          "type": "address"
        },
        {
          "internalType": "address",
          "name": "to",
          "type": "address"
        },
        {
          "internalType": "uint256",
          "name": "tokenId",
          "type": "uint256"
        },
        {
          "internalType": "bytes",
          "name": "data",
          "type": "bytes"
        }
      ],
      "name": "safeTransferFrom",
      "outputs": [],
      "stateMutability": "nonpayable",
      "type": "function"
    },
    {
      "inputs": [
        {
          "internalType": "address",
          "name": "operator",
          "type": "address"
        },
        {
          "internalType": "bool",
          "name": "approved",
          "type": "bool"
        }
      ],
      "name": "setApprovalForAll",
      "outputs": [],
      "stateMutability": "nonpayable",
      "type": "function"
    },
    {
      "inputs": [
        {
          "internalType": "bytes4",
          "name": "interfaceId",
          "type": "bytes4"
        }
      ],
      "name": "supportsInterface",
      "outputs": [
        {
          "internalType": "bool",
          "name": "",
          "type": "bool"
        }
      ],
      "stateMutability": "view",
      "type": "function"
    },
    {
      "inputs": [],
      "name": "symbol",
      "outputs": [
        {
          "internalType": "string",
          "name": "",
          "type": "string"
        }
      ],
      "stateMutability": "view",
      "type": "function"
    },
    {
      "inputs": [
        {
          "internalType": "uint256",
          "name": "tokenId",
          "type": "uint256"
        }
      ],
      "name": "tokenURI",
      "outputs": [
        {
          "internalType": "string",
          "name": "",
          "type": "string"
        }
      ],
      "stateMutability": "view",
      "type": "function"
    },
    {
      "inputs": [
        {
          "internalType": "address",
          "name": "from",
          "type": "address"
        },
        {
          "internalType": "address",
          "name": "to",
          "type": "address"
        },
        {
          "internalType": "uint256",
          "name": "tokenId",
          "type": "uint256"
        }
      ],
      "name": "transferFrom",
      "outputs": [],
      "stateMutability": "nonpayable",
      "type": "function"
    },
    {
      "inputs": [
        {
          "internalType": "address",
          "name": "newOwner",
          "type": "address"
        }
      ],
      "name": "transferOwnership",
      "outputs": [],
      "stateMutability": "nonpayable",
      "type": "function"
    }
  ],
  "bytecode": "0x60806040523480156200001157600080fd5b50336040518060400160405280600981526020017f5265776172644e465400000000000000000000000000000000000000000000008152506040518060400160405280600481526020017f524e465400000000000000000000000000000000000000000000000000000000815250816000908162000090919062000472565b508060019081620000a2919062000472565b505050600073ffffffffffffffffffffffffffffffffffffffff168173ffffffffffffffffffffffffffffffffffffffff16036200011a5760006040517f1e4fbdf70000000000000000000000000000000000000000000000000000000081526004016200011191906200059e565b60405180910390fd5b6200012b816200013260201b60201c565b50620005bb565b6000600760009054906101000a900473ffffffffffffffffffffffffffffffffffffffff16905081600760006101000a81548173ffffffffffffffffffffffffffffffffffffffff021916908373ffffffffffffffffffffffffffffffffffffffff1602179055508173ffffffffffffffffffffffffffffffffffffffff168173ffffffffffffffffffffffffffffffffffffffff167f8be0079c531659141344cd1fd0a4f28419497f9722a3daafe3b4186f6b6457e060405160405180910390a35050565b600081519050919050565b7f4e487b7100000000000000000000000000000000000000000000000000000000600052604160045260246000fd5b7f4e487b7100000000000000000000000000000000000000000000000000000000600052602260045260246000fd5b600060028204905060018216806200027a57607f821691505b60208210810362000290576200028f62000232565b5b50919050565b60008190508160005260206000209050919050565b60006020601f8301049050919050565b600082821b905092915050565b600060088302620002fa7fffffffffffffffffffffffffffffffffffffffffffffffffffffffffffffffff82620002bb565b620003068683620002bb565b95508019841693508086168417925050509392505050565b6000819050919050565b6000819050919050565b6000620003536200034d62000347846200031e565b62000328565b6200031e565b9050919050565b6000819050919050565b6200036f8362000332565b620003876200037e826200035a565b848454620002c8565b825550505050565b600090565b6200039e6200038f565b620003ab81848462000364565b505050565b5b81811015620003d357620003c760008262000394565b600181019050620003b1565b5050565b601f8211156200042257620003ec8162000296565b620003f784620002ab565b8101602085101562000407578190505b6200041f6200041685620002ab565b830182620003b0565b50505b505050565b600082821c905092915050565b6000620004476000198460080262000427565b1980831691505092915050565b600062000462838362000434565b9150826002028217905092915050565b6200047d82620001f8565b67ffffffffffffffff81111562000499576200049862000203565b5b620004a5825462000261565b620004b2828285620003d7565b600060209050601f831160018114620004ea5760008415620004d5578287015190505b620004e1858262000454565b86555062000551565b601f198416620004fa8662000296565b60005b828110156200052457848901518255600182019150602085019450602081019050620004fd565b8683101562000544578489015162000540601f89168262000434565b8355505b6001600288020188555050505b505050505050565b600073ffffffffffffffffffffffffffffffffffffffff82169050919050565b6000620005868262000559565b9050919050565b620005988162000579565b82525050565b6000602082019050620005b560008301846200058d565b92915050565b61297280620005cb6000396000f3fe608060405234801561001057600080fd5b50600436106101375760003560e01c806375794a3c116100b8578063b88d4fde1161007c578063b88d4fde1461033a578063bb8c979714610356578063c87b56dd14610372578063d0def521146103a2578063e985e9c5146103be578063f2fde38b146103ee57610137565b806375794a3c146102a85780638da5cb5b146102c657806395d89b41146102e4578063a22cb46514610302578063a6afd7db1461031e57610137565b806323b872dd116100ff57806323b872dd1461020657806342842e0e146102225780636352211e1461023e57806370a082311461026e578063715018a61461029e57610137565b806301ffc9a71461013c57806306fdde031461016c5780630700037d1461018a578063081812fc146101ba578063095ea7b3146101ea575b600080fd5b61015660048036038101906101519190611cec565b61040a565b6040516101639190611d34565b60405180910390f35b61017461046b565b6040516101819190611ddf565b60405180910390f35b6101a4600480360381019061019f9190611e5f565b6104fd565b6040516101b19190611ea5565b60405180910390f35b6101d460048036038101906101cf9190611eec565b610515565b6040516101e19190611f28565b60405180910390f35b61020460048036038101906101ff9190611f43565b610531565b005b610220600480360381019061021b9190611f83565b610547565b005b61023c60048036038101906102379190611f83565b610649565b005b61025860048036038101906102539190611eec565b610669565b6040516102659190611f28565b60405180910390f35b61028860048036038101906102839190611e5f565b61067b565b6040516102959190611ea5565b60405180910390f35b6102a6610735565b005b6102b0610749565b6040516102bd9190611ea5565b60405180910390f35b6102ce61074f565b6040516102db9190611f28565b60405180910390f35b6102ec610779565b6040516102f99190611ddf565b60405180910390f35b61031c60048036038101906103179190612002565b61080b565b005b61033860048036038101906103339190611e5f565b610821565b005b610354600480360381019061034f9190612177565b610881565b005b610370600480360381019061036b919061229b565b61089e565b005b61038c60048036038101906103879190611eec565b6109a8565b6040516103999190611ddf565b60405180910390f35b6103bc60048036038101906103b791906122e4565b610abb565b005b6103d860048036038101906103d39190612340565b610af7565b6040516103e59190611d34565b60405180910390f35b61040860048036038101906104039190611e5f565b610b8b565b005b6000634906490660e01b7bffffffffffffffffffffffffffffffffffffffffffffffffffffffff1916827bffffffffffffffffffffffffffffffffffffffffffffffffffffffff19161480610464575061046382610c11565b5b9050919050565b60606000805461047a906123af565b80601f01602080910402602001604051908101604052809291908181526020018280546104a6906123af565b80156104f35780601f106104c8576101008083540402835291602001916104f3565b820191906000526020600020905b8154815290600101906020018083116104d657829003601f168201915b5050505050905090565b60096020528060005260406000206000915090505481565b600061052082610cf3565b5061052a82610d7b565b9050919050565b610543828261053e610db8565b610dc0565b5050565b600073ffffffffffffffffffffffffffffffffffffffff168273ffffffffffffffffffffffffffffffffffffffff16036105b95760006040517f64a0ae920000000000000000000000000000000000000000000000000000000081526004016105b09190611f28565b60405180910390fd5b60006105cd83836105c8610db8565b610dd2565b90508373ffffffffffffffffffffffffffffffffffffffff168173ffffffffffffffffffffffffffffffffffffffff1614610643578382826040517f64283d7b00000000000000000000000000000000000000000000000000000000815260040161063a939291906123e0565b60405180910390fd5b50505050565b61066483838360405180602001604052806000815250610881565b505050565b600061067482610cf3565b9050919050565b60008073ffffffffffffffffffffffffffffffffffffffff168273ffffffffffffffffffffffffffffffffffffffff16036106ee5760006040517f89c62b640000000000000000000000000000000000000000000000000000000081526004016106e59190611f28565b60405180910390fd5b600360008373ffffffffffffffffffffffffffffffffffffffff1673ffffffffffffffffffffffffffffffffffffffff168152602001908152602001600020549050919050565b61073d610fec565b6107476000611073565b565b60085481565b6000600760009054906101000a900473ffffffffffffffffffffffffffffffffffffffff16905090565b606060018054610788906123af565b80601f01602080910402602001604051908101604052809291908181526020018280546107b4906123af565b80156108015780601f106107d657610100808354040283529160200191610801565b820191906000526020600020905b8154815290600101906020018083116107e457829003601f168201915b5050505050905090565b61081d610816610db8565b8383611139565b5050565b610829610fec565b600960008273ffffffffffffffffffffffffffffffffffffffff1673ffffffffffffffffffffffffffffffffffffffff168152602001908152602001600020600081548092919061087990612446565b919050555050565b61088c848484610547565b610898848484846112a8565b50505050565b6000600960003373ffffffffffffffffffffffffffffffffffffffff1673ffffffffffffffffffffffffffffffffffffffff1681526020019081526020016000205411610920576040517f08c379a0000000000000000000000000000000000000000000000000000000008152600401610917906124da565b60405180910390fd5b600960003373ffffffffffffffffffffffffffffffffffffffff1673ffffffffffffffffffffffffffffffffffffffff1681526020019081526020016000206000815480929190610970906124fa565b91905055506109813360085461145f565b61098d6008548261147d565b600860008154809291906109a090612446565b919050555050565b60606109b382610cf3565b5060006006600084815260200190815260200160002080546109d4906123af565b80601f0160208091040260200160405190810160405280929190818152602001828054610a00906123af565b8015610a4d5780601f10610a2257610100808354040283529160200191610a4d565b820191906000526020600020905b815481529060010190602001808311610a3057829003601f168201915b505050505090506000610a5e6114d9565b90506000815103610a73578192505050610ab6565b600082511115610aa8578082604051602001610a9092919061255f565b60405160208183030381529060405292505050610ab6565b610ab1846114f0565b925050505b919050565b610ac3610fec565b610acf8260085461145f565b610adb6008548261147d565b60086000815480929190610aee90612446565b91905055505050565b6000600560008473ffffffffffffffffffffffffffffffffffffffff1673ffffffffffffffffffffffffffffffffffffffff16815260200190815260200160002060008373ffffffffffffffffffffffffffffffffffffffff1673ffffffffffffffffffffffffffffffffffffffff16815260200190815260200160002060009054906101000a900460ff16905092915050565b610b93610fec565b600073ffffffffffffffffffffffffffffffffffffffff168173ffffffffffffffffffffffffffffffffffffffff1603610c055760006040517f1e4fbdf7000000000000000000000000000000000000000000000000000000008152600401610bfc9190611f28565b60405180910390fd5b610c0e81611073565b50565b60007f80ac58cd000000000000000000000000000000000000000000000000000000007bffffffffffffffffffffffffffffffffffffffffffffffffffffffff1916827bffffffffffffffffffffffffffffffffffffffffffffffffffffffff19161480610cdc57507f5b5e139f000000000000000000000000000000000000000000000000000000007bffffffffffffffffffffffffffffffffffffffffffffffffffffffff1916827bffffffffffffffffffffffffffffffffffffffffffffffffffffffff1916145b80610cec5750610ceb82611559565b5b9050919050565b600080610cff836115c3565b9050600073ffffffffffffffffffffffffffffffffffffffff168173ffffffffffffffffffffffffffffffffffffffff1603610d7257826040517f7e273289000000000000000000000000000000000000000000000000000000008152600401610d699190611ea5565b60405180910390fd5b80915050919050565b60006004600083815260200190815260200160002060009054906101000a900473ffffffffffffffffffffffffffffffffffffffff169050919050565b600033905090565b610dcd8383836001611600565b505050565b600080610dde846115c3565b9050600073ffffffffffffffffffffffffffffffffffffffff168373ffffffffffffffffffffffffffffffffffffffff1614610e2057610e1f8184866117c5565b5b600073ffffffffffffffffffffffffffffffffffffffff168173ffffffffffffffffffffffffffffffffffffffff1614610eb157610e62600085600080611600565b6001600360008373ffffffffffffffffffffffffffffffffffffffff1673ffffffffffffffffffffffffffffffffffffffff168152602001908152602001600020600082825403925050819055505b600073ffffffffffffffffffffffffffffffffffffffff168573ffffffffffffffffffffffffffffffffffffffff1614610f34576001600360008773ffffffffffffffffffffffffffffffffffffffff1673ffffffffffffffffffffffffffffffffffffffff168152602001908152602001600020600082825401925050819055505b846002600086815260200190815260200160002060006101000a81548173ffffffffffffffffffffffffffffffffffffffff021916908373ffffffffffffffffffffffffffffffffffffffff160217905550838573ffffffffffffffffffffffffffffffffffffffff168273ffffffffffffffffffffffffffffffffffffffff167fddf252ad1be2c89b69c2b068fc378daa952ba7f163c4a11628f55a4df523b3ef60405160405180910390a4809150509392505050565b610ff4610db8565b73ffffffffffffffffffffffffffffffffffffffff1661101261074f565b73ffffffffffffffffffffffffffffffffffffffff161461107157611035610db8565b6040517f118cdaa70000000000000000000000000000000000000000000000000000000081526004016110689190611f28565b60405180910390fd5b565b6000600760009054906101000a900473ffffffffffffffffffffffffffffffffffffffff16905081600760006101000a81548173ffffffffffffffffffffffffffffffffffffffff021916908373ffffffffffffffffffffffffffffffffffffffff1602179055508173ffffffffffffffffffffffffffffffffffffffff168173ffffffffffffffffffffffffffffffffffffffff167f8be0079c531659141344cd1fd0a4f28419497f9722a3daafe3b4186f6b6457e060405160405180910390a35050565b600073ffffffffffffffffffffffffffffffffffffffff168273ffffffffffffffffffffffffffffffffffffffff16036111aa57816040517f5b08ba180000000000000000000000000000000000000000000000000000000081526004016111a19190611f28565b60405180910390fd5b80600560008573ffffffffffffffffffffffffffffffffffffffff1673ffffffffffffffffffffffffffffffffffffffff16815260200190815260200160002060008473ffffffffffffffffffffffffffffffffffffffff1673ffffffffffffffffffffffffffffffffffffffff16815260200190815260200160002060006101000a81548160ff0219169083151502179055508173ffffffffffffffffffffffffffffffffffffffff168373ffffffffffffffffffffffffffffffffffffffff167f17307eab39ab6107e8899845ad3d59bd9653f200f220920489ca2b5937696c318360405161129b9190611d34565b60405180910390a3505050565b60008373ffffffffffffffffffffffffffffffffffffffff163b1115611459578273ffffffffffffffffffffffffffffffffffffffff1663150b7a026112ec610db8565b8685856040518563ffffffff1660e01b815260040161130e94939291906125d8565b6020604051808303816000875af192505050801561134a57506040513d601f19601f820116820180604052508101906113479190612639565b60015b6113ce573d806000811461137a576040519150601f19603f3d011682016040523d82523d6000602084013e61137f565b606091505b5060008151036113c657836040517f64a0ae920000000000000000000000000000000000000000000000000000000081526004016113bd9190611f28565b60405180910390fd5b805181602001fd5b63150b7a0260e01b7bffffffffffffffffffffffffffffffffffffffffffffffffffffffff1916817bffffffffffffffffffffffffffffffffffffffffffffffffffffffff19161461145757836040517f64a0ae9200000000000000000000000000000000000000000000000000000000815260040161144e9190611f28565b60405180910390fd5b505b50505050565b611479828260405180602001604052806000815250611889565b5050565b8060066000848152602001908152602001600020908161149d9190612812565b507ff8e1a15aba9398e019f0b49df1a4fde98ee17ae345cb5f6b5e2c27f5033e8ce7826040516114cd9190611ea5565b60405180910390a15050565b606060405180602001604052806000815250905090565b60606114fb82610cf3565b5060006115066114d9565b905060008151116115265760405180602001604052806000815250611551565b80611530846118a5565b60405160200161154192919061255f565b6040516020818303038152906040525b915050919050565b60007f01ffc9a7000000000000000000000000000000000000000000000000000000007bffffffffffffffffffffffffffffffffffffffffffffffffffffffff1916827bffffffffffffffffffffffffffffffffffffffffffffffffffffffff1916149050919050565b60006002600083815260200190815260200160002060009054906101000a900473ffffffffffffffffffffffffffffffffffffffff169050919050565b80806116395750600073ffffffffffffffffffffffffffffffffffffffff168273ffffffffffffffffffffffffffffffffffffffff1614155b1561176d57600061164984610cf3565b9050600073ffffffffffffffffffffffffffffffffffffffff168373ffffffffffffffffffffffffffffffffffffffff16141580156116b457508273ffffffffffffffffffffffffffffffffffffffff168173ffffffffffffffffffffffffffffffffffffffff1614155b80156116c757506116c58184610af7565b155b1561170957826040517fa9fbf51f0000000000000000000000000000000000000000000000000000000081526004016117009190611f28565b60405180910390fd5b811561176b57838573ffffffffffffffffffffffffffffffffffffffff168273ffffffffffffffffffffffffffffffffffffffff167f8c5be1e5ebec7d5bd14f71427d1e84f3dd0314c0f7b2291e5b200ac8c7c3b92560405160405180910390a45b505b836004600085815260200190815260200160002060006101000a81548173ffffffffffffffffffffffffffffffffffffffff021916908373ffffffffffffffffffffffffffffffffffffffff16021790555050505050565b6117d0838383611973565b61188457600073ffffffffffffffffffffffffffffffffffffffff168373ffffffffffffffffffffffffffffffffffffffff160361184557806040517f7e27328900000000000000000000000000000000000000000000000000000000815260040161183c9190611ea5565b60405180910390fd5b81816040517f177e802f00000000000000000000000000000000000000000000000000000000815260040161187b9291906128e4565b60405180910390fd5b505050565b6118938383611a34565b6118a060008484846112a8565b505050565b6060600060016118b484611b2d565b01905060008167ffffffffffffffff8111156118d3576118d261204c565b5b6040519080825280601f01601f1916602001820160405280156119055781602001600182028036833780820191505090505b509050600082602001820190505b600115611968578080600190039150507f3031323334353637383961626364656600000000000000000000000000000000600a86061a8153600a858161195c5761195b61290d565b5b04945060008503611913575b819350505050919050565b60008073ffffffffffffffffffffffffffffffffffffffff168373ffffffffffffffffffffffffffffffffffffffff1614158015611a2b57508273ffffffffffffffffffffffffffffffffffffffff168473ffffffffffffffffffffffffffffffffffffffff1614806119ec57506119eb8484610af7565b5b80611a2a57508273ffffffffffffffffffffffffffffffffffffffff16611a1283610d7b565b73ffffffffffffffffffffffffffffffffffffffff16145b5b90509392505050565b600073ffffffffffffffffffffffffffffffffffffffff168273ffffffffffffffffffffffffffffffffffffffff1603611aa65760006040517f64a0ae92000000000000000000000000000000000000000000000000000000008152600401611a9d9190611f28565b60405180910390fd5b6000611ab483836000610dd2565b9050600073ffffffffffffffffffffffffffffffffffffffff168173ffffffffffffffffffffffffffffffffffffffff1614611b285760006040517f73c6ac6e000000000000000000000000000000000000000000000000000000008152600401611b1f9190611f28565b60405180910390fd5b505050565b600080600090507a184f03e93ff9f4daa797ed6e38ed64bf6a1f0100000000000000008310611b8b577a184f03e93ff9f4daa797ed6e38ed64bf6a1f0100000000000000008381611b8157611b8061290d565b5b0492506040810190505b6d04ee2d6d415b85acef81000000008310611bc8576d04ee2d6d415b85acef81000000008381611bbe57611bbd61290d565b5b0492506020810190505b662386f26fc100008310611bf757662386f26fc100008381611bed57611bec61290d565b5b0492506010810190505b6305f5e1008310611c20576305f5e1008381611c1657611c1561290d565b5b0492506008810190505b6127108310611c45576127108381611c3b57611c3a61290d565b5b0492506004810190505b60648310611c685760648381611c5e57611c5d61290d565b5b0492506002810190505b600a8310611c77576001810190505b80915050919050565b6000604051905090565b600080fd5b600080fd5b60007fffffffff0000000000000000000000000000000000000000000000000000000082169050919050565b611cc981611c94565b8114611cd457600080fd5b50565b600081359050611ce681611cc0565b92915050565b600060208284031215611d0257611d01611c8a565b5b6000611d1084828501611cd7565b91505092915050565b60008115159050919050565b611d2e81611d19565b82525050565b6000602082019050611d496000830184611d25565b92915050565b600081519050919050565b600082825260208201905092915050565b60005b83811015611d89578082015181840152602081019050611d6e565b60008484015250505050565b6000601f19601f8301169050919050565b6000611db182611d4f565b611dbb8185611d5a565b9350611dcb818560208601611d6b565b611dd481611d95565b840191505092915050565b60006020820190508181036000830152611df98184611da6565b905092915050565b600073ffffffffffffffffffffffffffffffffffffffff82169050919050565b6000611e2c82611e01565b9050919050565b611e3c81611e21565b8114611e4757600080fd5b50565b600081359050611e5981611e33565b92915050565b600060208284031215611e7557611e74611c8a565b5b6000611e8384828501611e4a565b91505092915050565b6000819050919050565b611e9f81611e8c565b82525050565b6000602082019050611eba6000830184611e96565b92915050565b611ec981611e8c565b8114611ed457600080fd5b50565b600081359050611ee681611ec0565b92915050565b600060208284031215611f0257611f01611c8a565b5b6000611f1084828501611ed7565b91505092915050565b611f2281611e21565b82525050565b6000602082019050611f3d6000830184611f19565b92915050565b60008060408385031215611f5a57611f59611c8a565b5b6000611f6885828601611e4a565b9250506020611f7985828601611ed7565b9150509250929050565b600080600060608486031215611f9c57611f9b611c8a565b5b6000611faa86828701611e4a565b9350506020611fbb86828701611e4a565b9250506040611fcc86828701611ed7565b9150509250925092565b611fdf81611d19565b8114611fea57600080fd5b50565b600081359050611ffc81611fd6565b92915050565b6000806040838503121561201957612018611c8a565b5b600061202785828601611e4a565b925050602061203885828601611fed565b9150509250929050565b600080fd5b600080fd5b7f4e487b7100000000000000000000000000000000000000000000000000000000600052604160045260246000fd5b61208482611d95565b810181811067ffffffffffffffff821117156120a3576120a261204c565b5b80604052505050565b60006120b6611c80565b90506120c2828261207b565b919050565b600067ffffffffffffffff8211156120e2576120e161204c565b5b6120eb82611d95565b9050602081019050919050565b82818337600083830152505050565b600061211a612115846120c7565b6120ac565b90508281526020810184848401111561213657612135612047565b5b6121418482856120f8565b509392505050565b600082601f83011261215e5761215d612042565b5b813561216e848260208601612107565b91505092915050565b6000806000806080858703121561219157612190611c8a565b5b600061219f87828801611e4a565b94505060206121b087828801611e4a565b93505060406121c187828801611ed7565b925050606085013567ffffffffffffffff8111156121e2576121e1611c8f565b5b6121ee87828801612149565b91505092959194509250565b600067ffffffffffffffff8211156122155761221461204c565b5b61221e82611d95565b9050602081019050919050565b600061223e612239846121fa565b6120ac565b90508281526020810184848401111561225a57612259612047565b5b6122658482856120f8565b509392505050565b600082601f83011261228257612281612042565b5b813561229284826020860161222b565b91505092915050565b6000602082840312156122b1576122b0611c8a565b5b600082013567ffffffffffffffff8111156122cf576122ce611c8f565b5b6122db8482850161226d565b91505092915050565b600080604083850312156122fb576122fa611c8a565b5b600061230985828601611e4a565b925050602083013567ffffffffffffffff81111561232a57612329611c8f565b5b6123368582860161226d565b9150509250929050565b6000806040838503121561235757612356611c8a565b5b600061236585828601611e4a565b925050602061237685828601611e4a565b9150509250929050565b7f4e487b7100000000000000000000000000000000000000000000000000000000600052602260045260246000fd5b600060028204905060018216806123c757607f821691505b6020821081036123da576123d9612380565b5b50919050565b60006060820190506123f56000830186611f19565b6124026020830185611e96565b61240f6040830184611f19565b949350505050565b7f4e487b7100000000000000000000000000000000000000000000000000000000600052601160045260246000fd5b600061245182611e8c565b91507fffffffffffffffffffffffffffffffffffffffffffffffffffffffffffffffff820361248357612482612417565b5b600182019050919050565b7f4e6f207265776172647320617661696c61626c65000000000000000000000000600082015250565b60006124c4601483611d5a565b91506124cf8261248e565b602082019050919050565b600060208201905081810360008301526124f3816124b7565b9050919050565b600061250582611e8c565b91506000820361251857612517612417565b5b600182039050919050565b600081905092915050565b600061253982611d4f565b6125438185612523565b9350612553818560208601611d6b565b80840191505092915050565b600061256b828561252e565b9150612577828461252e565b91508190509392505050565b600081519050919050565b600082825260208201905092915050565b60006125aa82612583565b6125b4818561258e565b93506125c4818560208601611d6b565b6125cd81611d95565b840191505092915050565b60006080820190506125ed6000830187611f19565b6125fa6020830186611f19565b6126076040830185611e96565b8181036060830152612619818461259f565b905095945050505050565b60008151905061263381611cc0565b92915050565b60006020828403121561264f5761264e611c8a565b5b600061265d84828501612624565b91505092915050565b60008190508160005260206000209050919050565b60006020601f8301049050919050565b600082821b905092915050565b6000600883026126c87fffffffffffffffffffffffffffffffffffffffffffffffffffffffffffffffff8261268b565b6126d2868361268b565b95508019841693508086168417925050509392505050565b6000819050919050565b600061270f61270a61270584611e8c565b6126ea565b611e8c565b9050919050565b6000819050919050565b612729836126f4565b61273d61273582612716565b848454612698565b825550505050565b600090565b612752612745565b61275d818484612720565b505050565b5b818110156127815761277660008261274a565b600181019050612763565b5050565b601f8211156127c65761279781612666565b6127a08461267b565b810160208510156127af578190505b6127c36127bb8561267b565b830182612762565b50505b505050565b600082821c905092915050565b60006127e9600019846008026127cb565b1980831691505092915050565b600061280283836127d8565b9150826002028217905092915050565b61281b82611d4f565b67ffffffffffffffff8111156128345761283361204c565b5b61283e82546123af565b612849828285612785565b600060209050601f83116001811461287c576000841561286a578287015190505b61287485826127f6565b8655506128dc565b601f19841661288a86612666565b60005b828110156128b25784890151825560018201915060208501945060208101905061288d565b868310156128cf57848901516128cb601f8916826127d8565b8355505b6001600288020188555050505b505050505050565b60006040820190506128f96000830185611f19565b6129066020830184611e96565b9392505050565b7f4e487b7100000000000000000000000000000000000000000000000000000000600052601260045260246000fdfea2646970667358221220f0352cd3bc04ddacb640d4961e3793632aa6adfe7c96118a48d3ff3bb4d3a15b64736f6c63430008140033",
  "linkReferences": {},
  "deployedLinkReferences": {}
}